{
  "contractName": "createPays",
  "abi": [
    {
      "constant": true,
      "inputs": [
        {
          "name": "",
          "type": "uint256"
        }
      ],
      "name": "bills",
      "outputs": [
        {
          "name": "id",
          "type": "uint256"
        },
        {
          "name": "amount",
          "type": "uint256"
        },
        {
          "name": "ownerSupply",
          "type": "address"
        },
        {
          "name": "createdBill",
          "type": "uint256"
        },
        {
          "name": "expiresBill",
          "type": "uint256"
        },
        {
          "name": "penalized",
          "type": "bool"
        }
      ],
      "payable": false,
      "stateMutability": "view",
      "type": "function"
    },
    {
      "constant": true,
      "inputs": [],
      "name": "custoken",
      "outputs": [
        {
          "name": "",
          "type": "address"
        }
      ],
      "payable": false,
      "stateMutability": "view",
      "type": "function"
    },
    {
      "constant": true,
      "inputs": [],
      "name": "owner",
      "outputs": [
        {
          "name": "",
          "type": "address"
        }
      ],
      "payable": false,
      "stateMutability": "view",
      "type": "function"
    },
    {
      "constant": true,
      "inputs": [
        {
          "name": "",
          "type": "address"
        }
      ],
      "name": "ownerBill",
      "outputs": [
        {
          "name": "id",
          "type": "uint256"
        },
        {
          "name": "amount",
          "type": "uint256"
        },
        {
          "name": "ownerSupply",
          "type": "address"
        },
        {
          "name": "createdBill",
          "type": "uint256"
        },
        {
          "name": "expiresBill",
          "type": "uint256"
        },
        {
          "name": "penalized",
          "type": "bool"
        }
      ],
      "payable": false,
      "stateMutability": "view",
      "type": "function"
    },
    {
      "constant": false,
      "inputs": [
        {
          "name": "newOwner",
          "type": "address"
        }
      ],
      "name": "transferOwnership",
      "outputs": [],
      "payable": false,
      "stateMutability": "nonpayable",
      "type": "function"
    },
    {
      "inputs": [
        {
          "name": "_client",
          "type": "address"
        },
        {
          "name": "_supplyerAddress",
          "type": "address"
        },
        {
          "name": "_id",
          "type": "uint256"
        },
        {
          "name": "_amount",
          "type": "uint256"
        },
        {
          "name": "_created",
          "type": "uint256"
        },
        {
          "name": "_expires",
          "type": "uint256"
        }
      ],
      "payable": false,
      "stateMutability": "nonpayable",
      "type": "constructor"
    },
    {
      "payable": true,
      "stateMutability": "payable",
      "type": "fallback"
    },
    {
      "anonymous": false,
      "inputs": [
        {
          "indexed": false,
          "name": "billId",
          "type": "uint256"
        },
        {
          "indexed": false,
          "name": "billAmount",
          "type": "uint256"
        },
        {
          "indexed": false,
          "name": "billRequest",
          "type": "address"
        }
      ],
      "name": "billRegister",
      "type": "event"
    },
    {
      "anonymous": false,
      "inputs": [
        {
          "indexed": false,
          "name": "amount",
          "type": "uint256"
        }
      ],
      "name": "billStatus",
      "type": "event"
    },
    {
      "anonymous": false,
      "inputs": [
        {
          "indexed": true,
          "name": "previousOwner",
          "type": "address"
        },
        {
          "indexed": true,
          "name": "newOwner",
          "type": "address"
        }
      ],
      "name": "OwnershipTransferred",
      "type": "event"
    },
    {
      "constant": false,
      "inputs": [
        {
          "name": "_client",
          "type": "address"
        },
        {
          "name": "_amount",
          "type": "uint256"
        }
      ],
      "name": "payingWithToken",
      "outputs": [
        {
          "name": "",
          "type": "uint256"
        }
      ],
      "payable": true,
      "stateMutability": "payable",
      "type": "function"
    },
    {
      "constant": false,
      "inputs": [
        {
          "name": "_client",
          "type": "address"
        }
      ],
      "name": "supplyerAddress",
      "outputs": [
        {
          "name": "",
          "type": "address"
        }
      ],
      "payable": false,
      "stateMutability": "nonpayable",
      "type": "function"
    },
    {
      "constant": false,
      "inputs": [
        {
          "name": "_address",
          "type": "address"
        }
      ],
      "name": "setJCLTokenContractAddress",
      "outputs": [],
      "payable": false,
      "stateMutability": "nonpayable",
      "type": "function"
    },
    {
      "constant": false,
      "inputs": [],
      "name": "bye_bye",
      "outputs": [],
      "payable": false,
      "stateMutability": "nonpayable",
      "type": "function"
    }
  ],
  "bytecode": "0x60806040526001600060146101000a81548161ffff021916908361ffff16021790555034801561002e57600080fd5b5060405160c0806114db833981018060405281019080805190602001909291908051906020019092919080519060200190929190805190602001909291908051906020019092919080519060200190929190505050336000806101000a81548173ffffffffffffffffffffffffffffffffffffffff021916908373ffffffffffffffffffffffffffffffffffffffff160217905550846000806101000a81548173ffffffffffffffffffffffffffffffffffffffff021916908373ffffffffffffffffffffffffffffffffffffffff16021790555083600560008873ffffffffffffffffffffffffffffffffffffffff1673ffffffffffffffffffffffffffffffffffffffff1681526020019081526020016000206000018190555082600560008873ffffffffffffffffffffffffffffffffffffffff1673ffffffffffffffffffffffffffffffffffffffff1681526020019081526020016000206001018190555084600560008873ffffffffffffffffffffffffffffffffffffffff1673ffffffffffffffffffffffffffffffffffffffff16815260200190815260200160002060020160006101000a81548173ffffffffffffffffffffffffffffffffffffffff021916908373ffffffffffffffffffffffffffffffffffffffff16021790555081600560008873ffffffffffffffffffffffffffffffffffffffff1673ffffffffffffffffffffffffffffffffffffffff1681526020019081526020016000206003018190555080600560008873ffffffffffffffffffffffffffffffffffffffff1673ffffffffffffffffffffffffffffffffffffffff168152602001908152602001600020600401819055506000600560008873ffffffffffffffffffffffffffffffffffffffff1673ffffffffffffffffffffffffffffffffffffffff16815260200190815260200160002060050160006101000a81548160ff0219169083151502179055507f765514dc121e21315b80eaec42a621f3ceb2e9c79ef4c58843eac0afca9ba340848488604051808481526020018381526020018273ffffffffffffffffffffffffffffffffffffffff1673ffffffffffffffffffffffffffffffffffffffff168152602001935050505060405180910390a1505050505050611158806103836000396000f300608060405260043610610099576000357c0100000000000000000000000000000000000000000000000000000000900463ffffffff168063050a8c2e1461009e578063068dc52c146100f257806328bdcde8146101095780633c481cfe1461019d57806353877e49146101e057806387d8ae93146102375780638da5cb5b146102ba578063bdf1d46914610311578063f2fde38b146103bb575b600080fd5b6100dc600480360381019080803573ffffffffffffffffffffffffffffffffffffffff169060200190929190803590602001909291905050506103fe565b6040518082815260200191505060405180910390f35b3480156100fe57600080fd5b50610107610d45565b005b34801561011557600080fd5b5061013460048036038101908080359060200190929190505050610db9565b604051808781526020018681526020018573ffffffffffffffffffffffffffffffffffffffff1673ffffffffffffffffffffffffffffffffffffffff16815260200184815260200183815260200182151515158152602001965050505050505060405180910390f35b3480156101a957600080fd5b506101de600480360381019080803573ffffffffffffffffffffffffffffffffffffffff169060200190929190505050610e31565b005b3480156101ec57600080fd5b506101f5610e75565b604051808273ffffffffffffffffffffffffffffffffffffffff1673ffffffffffffffffffffffffffffffffffffffff16815260200191505060405180910390f35b34801561024357600080fd5b50610278600480360381019080803573ffffffffffffffffffffffffffffffffffffffff169060200190929190505050610e9b565b604051808273ffffffffffffffffffffffffffffffffffffffff1673ffffffffffffffffffffffffffffffffffffffff16815260200191505060405180910390f35b3480156102c657600080fd5b506102cf610f07565b604051808273ffffffffffffffffffffffffffffffffffffffff1673ffffffffffffffffffffffffffffffffffffffff16815260200191505060405180910390f35b34801561031d57600080fd5b50610352600480360381019080803573ffffffffffffffffffffffffffffffffffffffff169060200190929190505050610f2c565b604051808781526020018681526020018573ffffffffffffffffffffffffffffffffffffffff1673ffffffffffffffffffffffffffffffffffffffff16815260200184815260200183815260200182151515158152602001965050505050505060405180910390f35b3480156103c757600080fd5b506103fc600480360381019080803573ffffffffffffffffffffffffffffffffffffffff169060200190929190505050610f95565b005b600082600560008273ffffffffffffffffffffffffffffffffffffffff1673ffffffffffffffffffffffffffffffffffffffff168152602001908152602001600020600401544210151561050f576001600560008373ffffffffffffffffffffffffffffffffffffffff1673ffffffffffffffffffffffffffffffffffffffff16815260200190815260200160002060050160006101000a81548160ff021916908315150217905550603c600560008373ffffffffffffffffffffffffffffffffffffffff1673ffffffffffffffffffffffffffffffffffffffff168152602001908152602001600020600401540142101561050157600a60028190555061050a565b60326002819055505b610518565b60006002819055505b838380600360009054906101000a900473ffffffffffffffffffffffffffffffffffffffff1673ffffffffffffffffffffffffffffffffffffffff166370a08231846040518263ffffffff167c0100000000000000000000000000000000000000000000000000000000028152600401808273ffffffffffffffffffffffffffffffffffffffff1673ffffffffffffffffffffffffffffffffffffffff168152602001915050602060405180830381600087803b1580156105d857600080fd5b505af11580156105ec573d6000803e3d6000fd5b505050506040513d602081101561060257600080fd5b81019080805190602001909291905050501015151561062057600080fd5b600360009054906101000a900473ffffffffffffffffffffffffffffffffffffffff1673ffffffffffffffffffffffffffffffffffffffff1663a9059cbb600560008573ffffffffffffffffffffffffffffffffffffffff1673ffffffffffffffffffffffffffffffffffffffff16815260200190815260200160002060020160009054906101000a900473ffffffffffffffffffffffffffffffffffffffff16836040518363ffffffff167c0100000000000000000000000000000000000000000000000000000000028152600401808373ffffffffffffffffffffffffffffffffffffffff1673ffffffffffffffffffffffffffffffffffffffff16815260200182815260200192505050602060405180830381600087803b15801561074757600080fd5b505af115801561075b573d6000803e3d6000fd5b505050506040513d602081101561077157600080fd5b8101908080519060200190929190505050506107d881600560008573ffffffffffffffffffffffffffffffffffffffff1673ffffffffffffffffffffffffffffffffffffffff168152602001908152602001600020600101546110ea90919063ffffffff16565b600560008473ffffffffffffffffffffffffffffffffffffffff1673ffffffffffffffffffffffffffffffffffffffff168152602001908152602001600020600101819055507fbebbba5609d672876449a06928a35532ec133be9b4c05aea4b9563a2fe8ace5f600560008473ffffffffffffffffffffffffffffffffffffffff1673ffffffffffffffffffffffffffffffffffffffff168152602001908152602001600020600101546040518082815260200191505060405180910390a16108ee600254600560008973ffffffffffffffffffffffffffffffffffffffff1673ffffffffffffffffffffffffffffffffffffffff1681526020019081526020016000206001015461110b90919063ffffffff16565b600560008873ffffffffffffffffffffffffffffffffffffffff1673ffffffffffffffffffffffffffffffffffffffff1681526020019081526020016000206001018190555061098985600560008973ffffffffffffffffffffffffffffffffffffffff1673ffffffffffffffffffffffffffffffffffffffff168152602001908152602001600020600101546110ea90919063ffffffff16565b600560008873ffffffffffffffffffffffffffffffffffffffff1673ffffffffffffffffffffffffffffffffffffffff168152602001908152602001600020600101819055507fbebbba5609d672876449a06928a35532ec133be9b4c05aea4b9563a2fe8ace5f600560008873ffffffffffffffffffffffffffffffffffffffff1673ffffffffffffffffffffffffffffffffffffffff168152602001908152602001600020600101546040518082815260200191505060405180910390a1600560003373ffffffffffffffffffffffffffffffffffffffff1673ffffffffffffffffffffffffffffffffffffffff16815260200190815260200160002060020160009054906101000a900473ffffffffffffffffffffffffffffffffffffffff1673ffffffffffffffffffffffffffffffffffffffff166108fc349081150290604051600060405180830381858888f19350505050158015610af0573d6000803e3d6000fd5b5034600181905550610b4f600154600560008973ffffffffffffffffffffffffffffffffffffffff1673ffffffffffffffffffffffffffffffffffffffff168152602001908152602001600020600101546110ea90919063ffffffff16565b600560008873ffffffffffffffffffffffffffffffffffffffff1673ffffffffffffffffffffffffffffffffffffffff168152602001908152602001600020600101819055506000600560008873ffffffffffffffffffffffffffffffffffffffff1673ffffffffffffffffffffffffffffffffffffffff168152602001908152602001600020600101541415610c7e57600560003373ffffffffffffffffffffffffffffffffffffffff1673ffffffffffffffffffffffffffffffffffffffff16815260200190815260200160002060008082016000905560018201600090556002820160006101000a81549073ffffffffffffffffffffffffffffffffffffffff0219169055600382016000905560048201600090556005820160006101000a81549060ff021916905550505b7fbebbba5609d672876449a06928a35532ec133be9b4c05aea4b9563a2fe8ace5f600560008873ffffffffffffffffffffffffffffffffffffffff1673ffffffffffffffffffffffffffffffffffffffff168152602001908152602001600020600101546040518082815260200191505060405180910390a1600560008773ffffffffffffffffffffffffffffffffffffffff1673ffffffffffffffffffffffffffffffffffffffff16815260200190815260200160002060010154935050505092915050565b6000809054906101000a900473ffffffffffffffffffffffffffffffffffffffff1673ffffffffffffffffffffffffffffffffffffffff163373ffffffffffffffffffffffffffffffffffffffff16141515610da057600080fd5b3373ffffffffffffffffffffffffffffffffffffffff16ff5b600481815481101515610dc857fe5b90600052602060002090600602016000915090508060000154908060010154908060020160009054906101000a900473ffffffffffffffffffffffffffffffffffffffff16908060030154908060040154908060050160009054906101000a900460ff16905086565b80600360006101000a81548173ffffffffffffffffffffffffffffffffffffffff021916908373ffffffffffffffffffffffffffffffffffffffff16021790555050565b600360009054906101000a900473ffffffffffffffffffffffffffffffffffffffff1681565b6000600560008373ffffffffffffffffffffffffffffffffffffffff1673ffffffffffffffffffffffffffffffffffffffff16815260200190815260200160002060020160009054906101000a900473ffffffffffffffffffffffffffffffffffffffff169050919050565b6000809054906101000a900473ffffffffffffffffffffffffffffffffffffffff1681565b60056020528060005260406000206000915090508060000154908060010154908060020160009054906101000a900473ffffffffffffffffffffffffffffffffffffffff16908060030154908060040154908060050160009054906101000a900460ff16905086565b6000809054906101000a900473ffffffffffffffffffffffffffffffffffffffff1673ffffffffffffffffffffffffffffffffffffffff163373ffffffffffffffffffffffffffffffffffffffff16141515610ff057600080fd5b600073ffffffffffffffffffffffffffffffffffffffff168173ffffffffffffffffffffffffffffffffffffffff161415151561102c57600080fd5b8073ffffffffffffffffffffffffffffffffffffffff166000809054906101000a900473ffffffffffffffffffffffffffffffffffffffff1673ffffffffffffffffffffffffffffffffffffffff167f8be0079c531659141344cd1fd0a4f28419497f9722a3daafe3b4186f6b6457e060405160405180910390a3806000806101000a81548173ffffffffffffffffffffffffffffffffffffffff021916908373ffffffffffffffffffffffffffffffffffffffff16021790555050565b6000808383111515156110fc57600080fd5b82840390508091505092915050565b600080828401905083811015151561112257600080fd5b80915050929150505600a165627a7a72305820ef4138c430f88422e1e545dac92e412d8c0b02afc04984d434b1824b1aa917900029",
  "source": "////////////////////////////////////////////////////////////////////////////////////////////////////////////////////////////////////////////////////////////////////////////////////////////////\n//\n//\t\tNombre: CreaateBills.sol\n//\t\tAutor: Javier Cabello Laguna\n//\t\tVersion: 0.2\n//\t\tDescripción:\n//\t\t\tContratos creados para gestión de pagos de requerimientos de cobro.\t\t\n//\n////////////////////////////////////////////////////////////////////////////////////////////////////////////////////////////////////////////////////////////////////////////////////////////////\npragma solidity 0.4.24;\n\nimport \"./Ownable.sol\";\nimport \"./CustToken.sol\";\nimport \"openzeppelin-solidity/contracts/math/SafeMath.sol\";\n\ncontract CustTokenInterface{\n    function balanceOf(address owner) public view returns (uint256);\n    function transfer(address to, uint256 value) public view returns (bool);\n}\n\ncontract createPays is Ownable{\n\n    using SafeMath for uint;\n    uint16 convRate = 1;\n    uint value;\n    uint penalizedValue;\n\n    CustTokenInterface public custoken;\n\n    // Definicion de Eventos\n\n    event billRegister (uint billId, uint billAmount, address billRequest);\n    event billStatus (uint amount);\n\n    // Definicion de Estructuras\n\n    struct Bill {\n        uint id;\n        uint amount;\n        address ownerSupply;\n        uint createdBill;\n        uint expiresBill;\n        bool penalized;\n    }\n\n    Bill[] public bills;\n\n    mapping (address => Bill) public ownerBill;\n\n    constructor(address _client, address _supplyerAddress, uint _id, uint _amount, uint _created, uint _expires) public {\n        owner = _supplyerAddress;\n        ownerBill[_client].id = _id;\n        ownerBill[_client].amount = _amount;\n        ownerBill[_client].ownerSupply = _supplyerAddress;\n        ownerBill[_client].createdBill = _created;\n        ownerBill[_client].expiresBill = _expires;\n        ownerBill[_client].penalized = false;\n        emit billRegister(_id, _amount, _client);\n    }\n\n    modifier evaluateExpires(address _client){\n        //uint _amountPenalized;\n        if (now >= ownerBill[_client].expiresBill){\n            ownerBill[_client].penalized = true;\n            if (now < ownerBill[_client].expiresBill + 1 minutes){ penalizedValue = 10; } else { penalizedValue = 50; }\n            //else if (now >= ownerBill[_client].expiresBill + 1 minutes){\n            //    if (now < ownerBill[_client].expiresBill + 7 minutes) { penalizedValue = 20; }\n            //    else if (now >= ownerBill[_client].expiresBill + 7 minutes){\n            //        if (now < ownerBill[_client].expiresBill + 30 minutes) { penalizedValue = 30; }\n            //        else if (now >= ownerBill[_client].expiresBill + 30 minutes){\n            //            if (now < ownerBill[_client].expiresBill + 90 minutes) { penalizedValue = 100; }\n            //            else if (now >= ownerBill[_client].expiresBill + 90 minutes){\n            //                if (now < ownerBill[_client].expiresBill + 180 minutes) { penalizedValue = 200; }\n            //                else if (now >= ownerBill[_client].expiresBill + 180 minutes){\n            //                    penalizedValue = 2000;// Se inscribe en la blacklist\n            //            }\n            //        }\n            //    }\n            //}\n            //if (now >= ownerBill[_client].expiresBill + 1 hours){\n            //    _amountPenalized = ownerBill[_client].amount / 100;\n            //ownerBill[_client].amount += 10;\n            //} else {\n            //    _amountPenalized = ownerBill[_client].amount / 200;\n            //    ownerBill[_client].amount += _amountPenalized;\n           //}\n        }\n        else { penalizedValue = 0; }\n        _;\n    }\n\n    modifier paying(address _client, uint _amount) {\n        require(custoken.balanceOf(_client) >= _amount);\n        custoken.transfer(ownerBill[_client].ownerSupply, _amount);\n        ownerBill[_client].amount = ownerBill[_client].amount.sub(_amount);\n        emit billStatus(ownerBill[_client].amount);\n        _;\n    }    \n\n    function payingWithToken(address _client, uint _amount) external payable evaluateExpires (_client) paying (_client, _amount) returns (uint) {\n        ownerBill[_client].amount = ownerBill[_client].amount.add(penalizedValue);\n        ownerBill[_client].amount = ownerBill[_client].amount.sub(_amount);\n        emit billStatus(ownerBill[_client].amount);\n        address(ownerBill[msg.sender].ownerSupply).transfer(msg.value);\n        value = msg.value;\n        ownerBill[_client].amount = ownerBill[_client].amount.sub(value);\n        if (ownerBill[_client].amount == 0) {\n            delete ownerBill[msg.sender];\n\t}\n        emit billStatus(ownerBill[_client].amount);\n        return (ownerBill[_client].amount);\n    }\n\n    function supplyerAddress(address _client) public returns (address){\n        return (ownerBill[_client].ownerSupply);\n    }\n\n    function setJCLTokenContractAddress(address _address) external {\n        custoken = CustTokenInterface(_address);\n    }\n    \n    function bye_bye() external onlyOwner {\n        selfdestruct(msg.sender);\n    }\t\t\n\n    function () public payable{\n        revert();\n    }\n\n}",
  "sourcePath": "/Users/JaviMac/Desktop/Javi/BBDD Técnica/Master Blockchain/A1x-TFM/A1x.5-Dev/Desarrollo/contracts/CreatePays.sol",
  "compiler": {
    "name": "solc",
    "version": "0.4.24+commit.e67f0147.Emscripten.clang"
  },
  "schemaVersion": "2.0.1",
  "updatedAt": "2019-02-01T10:47:17.949Z"
}